{
  "contractName": "GSCMarket",
  "abi": [
    {
      "constant": true,
      "inputs": [],
      "name": "owner",
      "outputs": [
        {
          "name": "",
          "type": "address"
        }
      ],
      "payable": false,
      "stateMutability": "view",
      "type": "function"
    },
    {
      "constant": true,
      "inputs": [
        {
          "name": "",
          "type": "uint256"
        }
      ],
      "name": "buyerInfo",
      "outputs": [
        {
          "name": "buyerAddress",
          "type": "address"
        },
        {
          "name": "name",
          "type": "bytes32"
        },
        {
          "name": "age",
          "type": "uint256"
        }
      ],
      "payable": false,
      "stateMutability": "view",
      "type": "function"
    },
    {
      "constant": true,
      "inputs": [
        {
          "name": "",
          "type": "uint256"
        }
      ],
      "name": "buyers",
      "outputs": [
        {
          "name": "",
          "type": "address"
        }
      ],
      "payable": false,
      "stateMutability": "view",
      "type": "function"
    },
    {
      "inputs": [],
      "payable": false,
      "stateMutability": "nonpayable",
      "type": "constructor"
    },
    {
      "anonymous": false,
      "inputs": [
        {
          "indexed": false,
          "name": "_buyer",
          "type": "address"
        },
        {
          "indexed": false,
          "name": "_id",
          "type": "uint256"
        }
      ],
      "name": "LogBuyGSCMarket",
      "type": "event"
    },
    {
      "constant": false,
      "inputs": [
        {
          "name": "_id",
          "type": "uint256"
        },
        {
          "name": "_name",
          "type": "bytes32"
        },
        {
          "name": "_age",
          "type": "uint256"
        }
      ],
      "name": "buyGSCMarket",
      "outputs": [],
      "payable": true,
      "stateMutability": "payable",
      "type": "function"
    },
    {
      "constant": true,
      "inputs": [
        {
          "name": "_id",
          "type": "uint256"
        }
      ],
      "name": "getBuyerInfo",
      "outputs": [
        {
          "name": "",
          "type": "address"
        },
        {
          "name": "",
          "type": "bytes32"
        },
        {
          "name": "",
          "type": "uint256"
        }
      ],
      "payable": false,
      "stateMutability": "view",
      "type": "function"
    },
    {
      "constant": true,
      "inputs": [],
      "name": "getAllBuyers",
      "outputs": [
        {
          "name": "",
          "type": "address[10]"
        }
      ],
      "payable": false,
      "stateMutability": "view",
      "type": "function"
    }
  ],
  "bytecode": "0x608060405234801561001057600080fd5b5033600160006101000a81548173ffffffffffffffffffffffffffffffffffffffff021916908373ffffffffffffffffffffffffffffffffffffffff160217905550610730806100616000396000f300608060405260043610610078576000357c0100000000000000000000000000000000000000000000000000000000900463ffffffff1680635aee87031461007d57806386cba22b146101005780638da5cb5b14610153578063e377e966146101aa578063f2aa82181461022d578063f44064fd1461029a575b600080fd5b34801561008957600080fd5b506100a8600480360381019080803590602001909291905050506102d2565b604051808473ffffffffffffffffffffffffffffffffffffffff1673ffffffffffffffffffffffffffffffffffffffff1681526020018360001916600019168152602001828152602001935050505060405180910390f35b34801561010c57600080fd5b5061011561038e565b6040518082600a60200280838360005b83811015610140578082015181840152602081019050610125565b5050505090500191505060405180910390f35b34801561015f57600080fd5b5061016861040f565b604051808273ffffffffffffffffffffffffffffffffffffffff1673ffffffffffffffffffffffffffffffffffffffff16815260200191505060405180910390f35b3480156101b657600080fd5b506101d560048036038101908080359060200190929190505050610435565b604051808473ffffffffffffffffffffffffffffffffffffffff1673ffffffffffffffffffffffffffffffffffffffff1681526020018360001916600019168152602001828152602001935050505060405180910390f35b34801561023957600080fd5b506102586004803603810190808035906020019092919050505061047f565b604051808273ffffffffffffffffffffffffffffffffffffffff1673ffffffffffffffffffffffffffffffffffffffff16815260200191505060405180910390f35b6102d0600480360381019080803590602001909291908035600019169060200190929190803590602001909291905050506104b4565b005b60008060006102df6106a5565b600080868152602001908152602001600020606060405190810160405290816000820160009054906101000a900473ffffffffffffffffffffffffffffffffffffffff1673ffffffffffffffffffffffffffffffffffffffff1673ffffffffffffffffffffffffffffffffffffffff1681526020016001820154600019166000191681526020016002820154815250509050806000015181602001518260400151935093509350509193909250565b6103966106e0565b6002600a806020026040519081016040528092919082600a8015610405576020028201915b8160009054906101000a900473ffffffffffffffffffffffffffffffffffffffff1673ffffffffffffffffffffffffffffffffffffffff16815260200190600101908083116103bb575b5050505050905090565b600160009054906101000a900473ffffffffffffffffffffffffffffffffffffffff1681565b60006020528060005260406000206000915090508060000160009054906101000a900473ffffffffffffffffffffffffffffffffffffffff16908060010154908060020154905083565b600281600a8110151561048e57fe5b016000915054906101000a900473ffffffffffffffffffffffffffffffffffffffff1681565b600083101580156104c6575060098311155b15156104d157600080fd5b33600284600a811015156104e157fe5b0160006101000a81548173ffffffffffffffffffffffffffffffffffffffff021916908373ffffffffffffffffffffffffffffffffffffffff1602179055506060604051908101604052803373ffffffffffffffffffffffffffffffffffffffff168152602001836000191681526020018281525060008085815260200190815260200160002060008201518160000160006101000a81548173ffffffffffffffffffffffffffffffffffffffff021916908373ffffffffffffffffffffffffffffffffffffffff1602179055506020820151816001019060001916905560408201518160020155905050600160009054906101000a900473ffffffffffffffffffffffffffffffffffffffff1673ffffffffffffffffffffffffffffffffffffffff166108fc349081150290604051600060405180830381858888f19350505050158015610634573d6000803e3d6000fd5b507f6afd64442b25eaa0b6742663e9ded54738a3c0c6d69cd58eb95f57f7baa37ae23384604051808373ffffffffffffffffffffffffffffffffffffffff1673ffffffffffffffffffffffffffffffffffffffff1681526020018281526020019250505060405180910390a1505050565b606060405190810160405280600073ffffffffffffffffffffffffffffffffffffffff16815260200160008019168152602001600081525090565b61014060405190810160405280600a906020820280388339808201915050905050905600a165627a7a7230582040ee8e62f4eed5c90cbf76ec6895bfb67321049ac0d147767b7f875735cf48830029",
  "source": "pragma solidity ^0.4.23;\n\ncontract GSCMarket {\n    struct Buyer {\n        address buyerAddress;\n        bytes32 name;\n        uint age;\n        \n    }\n\n    mapping (uint => Buyer) public buyerInfo;\n    address public owner;\n    address[10] public buyers;\n\n    event LogBuyGSCMarket(\n        address _buyer,\n        uint _id\n    );\n\n    constructor() public {\n        owner = msg.sender;\n    }\n\n    function buyGSCMarket(uint _id, bytes32 _name, uint _age) public payable {\n        require(_id >= 0 && _id <= 9);\n        buyers[_id] = msg.sender;\n        buyerInfo[_id] = Buyer(msg.sender, _name, _age);\n\n        owner.transfer(msg.value);\n        emit LogBuyGSCMarket(msg.sender, _id);\n    }\n\n    function getBuyerInfo(uint _id) public view returns (address, bytes32, uint) {\n        Buyer memory buyer = buyerInfo[_id];\n        return (buyer.buyerAddress, buyer.name, buyer.age);\n    }\n\n    function getAllBuyers() public view returns (address[10]) {\n        return buyers;\n    }\n}\n",
  "sourcePath": "/Volumes/ExternalSSD/dApp/dApp-react-GSCMarketPlace/contracts/GSCMarket.sol",
  "compiler": {
    "name": "solc",
    "version": "0.4.24+commit.e67f0147.Emscripten.clang"
  },
  "schemaVersion": "2.0.1",
  "updatedAt": "2018-09-08T13:47:25.053Z"
}